{
  "_format": "hh-sol-artifact-1",
  "contractName": "ProductAuthentication",
  "sourceName": "contracts/ProductAuthentication.sol",
  "abi": [
    {
      "inputs": [],
      "stateMutability": "nonpayable",
      "type": "constructor"
    },
    {
      "inputs": [
        {
          "internalType": "string",
          "name": "_productHash",
          "type": "string"
        },
        {
          "internalType": "address",
          "name": "_retailerAddress",
          "type": "address"
        }
      ],
      "name": "addRetailerToProduct",
      "outputs": [],
      "stateMutability": "nonpayable",
      "type": "function"
    },
    {
      "inputs": [
        {
          "internalType": "string",
          "name": "_name",
          "type": "string"
        },
        {
          "internalType": "string",
          "name": "_phone",
          "type": "string"
        }
      ],
      "name": "createCustomer",
      "outputs": [],
      "stateMutability": "nonpayable",
      "type": "function"
    },
    {
      "inputs": [
        {
          "internalType": "string",
          "name": "_name",
          "type": "string"
        },
        {
          "internalType": "string",
          "name": "_location",
          "type": "string"
        },
        {
          "internalType": "string",
          "name": "_timestamp",
          "type": "string"
        }
      ],
      "name": "createManufacturer",
      "outputs": [],
      "stateMutability": "nonpayable",
      "type": "function"
    },
    {
      "inputs": [
        {
          "internalType": "string",
          "name": "_productHash",
          "type": "string"
        },
        {
          "internalType": "string",
          "name": "_brand",
          "type": "string"
        },
        {
          "internalType": "string",
          "name": "_model",
          "type": "string"
        },
        {
          "internalType": "string",
          "name": "_description",
          "type": "string"
        }
      ],
      "name": "createProduct",
      "outputs": [],
      "stateMutability": "nonpayable",
      "type": "function"
    },
    {
      "inputs": [
        {
          "internalType": "string",
          "name": "_retailerName",
          "type": "string"
        },
        {
          "internalType": "string",
          "name": "_retailerLocation",
          "type": "string"
        }
      ],
      "name": "createRetailer",
      "outputs": [],
      "stateMutability": "nonpayable",
      "type": "function"
    },
    {
      "inputs": [
        {
          "internalType": "string",
          "name": "_productHash",
          "type": "string"
        }
      ],
      "name": "getProductDetails",
      "outputs": [
        {
          "internalType": "uint256",
          "name": "status",
          "type": "uint256"
        },
        {
          "internalType": "string",
          "name": "",
          "type": "string"
        },
        {
          "internalType": "string",
          "name": "",
          "type": "string"
        },
        {
          "internalType": "string",
          "name": "",
          "type": "string"
        },
        {
          "components": [
            {
              "internalType": "string",
              "name": "name",
              "type": "string"
            },
            {
              "internalType": "string",
              "name": "location",
              "type": "string"
            },
            {
              "internalType": "string",
              "name": "timestamp",
              "type": "string"
            },
            {
              "internalType": "bool",
              "name": "doesExist",
              "type": "bool"
            }
          ],
          "internalType": "struct ProductAuthentication.Manufacturer",
          "name": "",
          "type": "tuple"
        },
        {
          "components": [
            {
              "internalType": "string",
              "name": "name",
              "type": "string"
            },
            {
              "internalType": "string",
              "name": "location",
              "type": "string"
            },
            {
              "internalType": "bool",
              "name": "doesExist",
              "type": "bool"
            }
          ],
          "internalType": "struct ProductAuthentication.Retailer",
          "name": "",
          "type": "tuple"
        },
        {
          "components": [
            {
              "internalType": "string",
              "name": "name",
              "type": "string"
            },
            {
              "internalType": "string",
              "name": "phone",
              "type": "string"
            },
            {
              "internalType": "string[]",
              "name": "products",
              "type": "string[]"
            },
            {
              "internalType": "bool",
              "name": "doesExist",
              "type": "bool"
            }
          ],
          "internalType": "struct ProductAuthentication.Customer[]",
          "name": "",
          "type": "tuple[]"
        }
      ],
      "stateMutability": "view",
      "type": "function"
    },
    {
      "inputs": [
        {
          "internalType": "string",
          "name": "_productHash",
          "type": "string"
        }
      ],
      "name": "markProductAsStolen",
      "outputs": [],
      "stateMutability": "nonpayable",
      "type": "function"
    },
    {
      "inputs": [
        {
          "internalType": "string",
          "name": "_productHash",
          "type": "string"
        },
        {
          "internalType": "address",
          "name": "_intialOwner",
          "type": "address"
        }
      ],
      "name": "transferFromRetailerToIntialOwner",
      "outputs": [],
      "stateMutability": "nonpayable",
      "type": "function"
    },
    {
      "inputs": [
        {
          "internalType": "string",
          "name": "_productHash",
          "type": "string"
        },
        {
          "internalType": "address",
          "name": "_newOwner",
          "type": "address"
        }
      ],
      "name": "transferOwnershipFromCustomer",
      "outputs": [],
      "stateMutability": "nonpayable",
      "type": "function"
    },
    {
      "inputs": [
        {
          "internalType": "address",
          "name": "_user",
          "type": "address"
        }
      ],
      "name": "whoIsTheUser",
      "outputs": [
        {
          "internalType": "string",
          "name": "",
          "type": "string"
        }
      ],
      "stateMutability": "view",
      "type": "function"
    }
  ],
  "bytecode": "0x608060405234801561001057600080fd5b50336000806101000a81548173ffffffffffffffffffffffffffffffffffffffff021916908373ffffffffffffffffffffffffffffffffffffffff16021790555061395c806100606000396000f3fe608060405234801561001057600080fd5b506004361061009e5760003560e01c806374a353841161006657806374a353841461015d578063a6f43d5014610179578063bb7a916714610195578063c43fe7c4146101b1578063eb51e3cd146101cd5761009e565b80630dfa029e146100a3578063198c59b0146100bf5780632274453f146100f557806342ba8893146101115780635054873114610141575b600080fd5b6100bd60048036038101906100b891906127fe565b6101e9565b005b6100d960048036038101906100d491906127fe565b6106e4565b6040516100ec9796959493929190612c01565b60405180910390f35b61010f600480360381019061010a9190612cf8565b611192565b005b61012b60048036038101906101269190612d54565b611779565b6040516101389190612d81565b60405180910390f35b61015b60048036038101906101569190612cf8565b61196f565b005b61017760048036038101906101729190612da3565b611b80565b005b610193600480360381019061018e9190612e1b565b611cd1565b005b6101af60048036038101906101aa9190612cf8565b611e42565b005b6101cb60048036038101906101c69190612da3565b612075565b005b6101e760048036038101906101e29190612ec2565b6121e3565b005b8060006001826040516101fc9190612fd5565b9081526020016040518091039020600001540361024e576040517f08c379a000000000000000000000000000000000000000000000000000000000815260040161024590613038565b60405180910390fd5b8160006001826040516102619190612fd5565b90815260200160405180910390206040518060e00160405290816000820154815260200160018201805461029490613087565b80601f01602080910402602001604051908101604052809291908181526020018280546102c090613087565b801561030d5780601f106102e25761010080835404028352916020019161030d565b820191906000526020600020905b8154815290600101906020018083116102f057829003601f168201915b5050505050815260200160028201805461032690613087565b80601f016020809104026020016040519081016040528092919081815260200182805461035290613087565b801561039f5780601f106103745761010080835404028352916020019161039f565b820191906000526020600020905b81548152906001019060200180831161038257829003601f168201915b505050505081526020016003820180546103b890613087565b80601f01602080910402602001604051908101604052809291908181526020018280546103e490613087565b80156104315780601f1061040657610100808354040283529160200191610431565b820191906000526020600020905b81548152906001019060200180831161041457829003601f168201915b505050505081526020016004820160009054906101000a900473ffffffffffffffffffffffffffffffffffffffff1673ffffffffffffffffffffffffffffffffffffffff1673ffffffffffffffffffffffffffffffffffffffff1681526020016005820160009054906101000a900473ffffffffffffffffffffffffffffffffffffffff1673ffffffffffffffffffffffffffffffffffffffff1673ffffffffffffffffffffffffffffffffffffffff1681526020016006820180548060200260200160405190810160405280929190818152602001828054801561056b57602002820191906000526020600020905b8160009054906101000a900473ffffffffffffffffffffffffffffffffffffffff1673ffffffffffffffffffffffffffffffffffffffff1681526020019060010190808311610521575b505050505081525050905060008160c0015151905060008082146105fa576001846040516105999190612fd5565b90815260200160405180910390206006016001836105b791906130e7565b815481106105c8576105c761311b565b5b9060005260206000200160009054906101000a900473ffffffffffffffffffffffffffffffffffffffff169050610647565b600073ffffffffffffffffffffffffffffffffffffffff168360a0015173ffffffffffffffffffffffffffffffffffffffff161461063e578260a001519050610646565b826080015190505b5b3373ffffffffffffffffffffffffffffffffffffffff168173ffffffffffffffffffffffffffffffffffffffff16146106b5576040517f08c379a00000000000000000000000000000000000000000000000000000000081526004016106ac906131bc565b60405180910390fd5b60026001876040516106c79190612fd5565b908152602001604051809103902060000181905550505050505050565b600060608060606106f3612460565b6106fb61248a565b60608760006001826040516107109190612fd5565b90815260200160405180910390206000015403610762576040517f08c379a000000000000000000000000000000000000000000000000000000000815260040161075990613038565b60405180910390fd5b600060018a6040516107749190612fd5565b90815260200160405180910390206040518060e0016040529081600082015481526020016001820180546107a790613087565b80601f01602080910402602001604051908101604052809291908181526020018280546107d390613087565b80156108205780601f106107f557610100808354040283529160200191610820565b820191906000526020600020905b81548152906001019060200180831161080357829003601f168201915b5050505050815260200160028201805461083990613087565b80601f016020809104026020016040519081016040528092919081815260200182805461086590613087565b80156108b25780601f10610887576101008083540402835291602001916108b2565b820191906000526020600020905b81548152906001019060200180831161089557829003601f168201915b505050505081526020016003820180546108cb90613087565b80601f01602080910402602001604051908101604052809291908181526020018280546108f790613087565b80156109445780601f1061091957610100808354040283529160200191610944565b820191906000526020600020905b81548152906001019060200180831161092757829003601f168201915b505050505081526020016004820160009054906101000a900473ffffffffffffffffffffffffffffffffffffffff1673ffffffffffffffffffffffffffffffffffffffff1673ffffffffffffffffffffffffffffffffffffffff1681526020016005820160009054906101000a900473ffffffffffffffffffffffffffffffffffffffff1673ffffffffffffffffffffffffffffffffffffffff1673ffffffffffffffffffffffffffffffffffffffff16815260200160068201805480602002602001604051908101604052809291908181526020018280548015610a7e57602002820191906000526020600020905b8160009054906101000a900473ffffffffffffffffffffffffffffffffffffffff1673ffffffffffffffffffffffffffffffffffffffff1681526020019060010190808311610a34575b5050505050815250509050600060046000836080015173ffffffffffffffffffffffffffffffffffffffff1673ffffffffffffffffffffffffffffffffffffffff168152602001908152602001600020604051806080016040529081600082018054610ae990613087565b80601f0160208091040260200160405190810160405280929190818152602001828054610b1590613087565b8015610b625780601f10610b3757610100808354040283529160200191610b62565b820191906000526020600020905b815481529060010190602001808311610b4557829003601f168201915b50505050508152602001600182018054610b7b90613087565b80601f0160208091040260200160405190810160405280929190818152602001828054610ba790613087565b8015610bf45780601f10610bc957610100808354040283529160200191610bf4565b820191906000526020600020905b815481529060010190602001808311610bd757829003601f168201915b50505050508152602001600282018054610c0d90613087565b80601f0160208091040260200160405190810160405280929190818152602001828054610c3990613087565b8015610c865780601f10610c5b57610100808354040283529160200191610c86565b820191906000526020600020905b815481529060010190602001808311610c6957829003601f168201915b505050505081526020016003820160009054906101000a900460ff16151515158152505090506000600360008460a0015173ffffffffffffffffffffffffffffffffffffffff1673ffffffffffffffffffffffffffffffffffffffff168152602001908152602001600020604051806060016040529081600082018054610d0c90613087565b80601f0160208091040260200160405190810160405280929190818152602001828054610d3890613087565b8015610d855780601f10610d5a57610100808354040283529160200191610d85565b820191906000526020600020905b815481529060010190602001808311610d6857829003601f168201915b50505050508152602001600182018054610d9e90613087565b80601f0160208091040260200160405190810160405280929190818152602001828054610dca90613087565b8015610e175780601f10610dec57610100808354040283529160200191610e17565b820191906000526020600020905b815481529060010190602001808311610dfa57829003601f168201915b505050505081526020016002820160009054906101000a900460ff161515151581525050905060008360c0015151905060008167ffffffffffffffff811115610e6357610e626126d3565b5b604051908082528060200260200182016040528015610e9c57816020015b610e896124ad565b815260200190600190039081610e815790505b50905060005b8281101561115b57600260008760c001518381518110610ec557610ec461311b565b5b602002602001015173ffffffffffffffffffffffffffffffffffffffff1673ffffffffffffffffffffffffffffffffffffffff168152602001908152602001600020604051806080016040529081600082018054610f2290613087565b80601f0160208091040260200160405190810160405280929190818152602001828054610f4e90613087565b8015610f9b5780601f10610f7057610100808354040283529160200191610f9b565b820191906000526020600020905b815481529060010190602001808311610f7e57829003601f168201915b50505050508152602001600182018054610fb490613087565b80601f0160208091040260200160405190810160405280929190818152602001828054610fe090613087565b801561102d5780601f106110025761010080835404028352916020019161102d565b820191906000526020600020905b81548152906001019060200180831161101057829003601f168201915b5050505050815260200160028201805480602002602001604051908101604052809291908181526020016000905b8282101561110757838290600052602060002001805461107a90613087565b80601f01602080910402602001604051908101604052809291908181526020018280546110a690613087565b80156110f35780601f106110c8576101008083540402835291602001916110f3565b820191906000526020600020905b8154815290600101906020018083116110d657829003601f168201915b50505050508152602001906001019061105b565b5050505081526020016003820160009054906101000a900460ff16151515158152505082828151811061113d5761113c61311b565b5b60200260200101819052508080611153906131dc565b915050610ea2565b5084600001518560200151866040015187606001518787869c509c509c509c509c509c509c50505050505050919395979092949650565b80600260008273ffffffffffffffffffffffffffffffffffffffff1673ffffffffffffffffffffffffffffffffffffffff16815260200190815260200160002060030160009054906101000a900460ff16611222576040517f08c379a000000000000000000000000000000000000000000000000000000000815260040161121990613270565b60405180910390fd5b82600180826040516112349190612fd5565b90815260200160405180910390206000015414611286576040517f08c379a000000000000000000000000000000000000000000000000000000000815260040161127d906132dc565b60405180910390fd5b8360006001826040516112999190612fd5565b90815260200160405180910390206040518060e0016040529081600082015481526020016001820180546112cc90613087565b80601f01602080910402602001604051908101604052809291908181526020018280546112f890613087565b80156113455780601f1061131a57610100808354040283529160200191611345565b820191906000526020600020905b81548152906001019060200180831161132857829003601f168201915b5050505050815260200160028201805461135e90613087565b80601f016020809104026020016040519081016040528092919081815260200182805461138a90613087565b80156113d75780601f106113ac576101008083540402835291602001916113d7565b820191906000526020600020905b8154815290600101906020018083116113ba57829003601f168201915b505050505081526020016003820180546113f090613087565b80601f016020809104026020016040519081016040528092919081815260200182805461141c90613087565b80156114695780601f1061143e57610100808354040283529160200191611469565b820191906000526020600020905b81548152906001019060200180831161144c57829003601f168201915b505050505081526020016004820160009054906101000a900473ffffffffffffffffffffffffffffffffffffffff1673ffffffffffffffffffffffffffffffffffffffff1673ffffffffffffffffffffffffffffffffffffffff1681526020016005820160009054906101000a900473ffffffffffffffffffffffffffffffffffffffff1673ffffffffffffffffffffffffffffffffffffffff1673ffffffffffffffffffffffffffffffffffffffff168152602001600682018054806020026020016040519081016040528092919081815260200182805480156115a357602002820191906000526020600020905b8160009054906101000a900473ffffffffffffffffffffffffffffffffffffffff1673ffffffffffffffffffffffffffffffffffffffff1681526020019060010190808311611559575b505050505081525050905060008160c001515190506000808214611632576001846040516115d19190612fd5565b90815260200160405180910390206006016001836115ef91906130e7565b81548110611600576115ff61311b565b5b9060005260206000200160009054906101000a900473ffffffffffffffffffffffffffffffffffffffff16905061167f565b600073ffffffffffffffffffffffffffffffffffffffff168360a0015173ffffffffffffffffffffffffffffffffffffffff1614611676578260a00151905061167e565b826080015190505b5b3373ffffffffffffffffffffffffffffffffffffffff168173ffffffffffffffffffffffffffffffffffffffff16146116ed576040517f08c379a00000000000000000000000000000000000000000000000000000000081526004016116e4906131bc565b60405180910390fd5b6001886040516116fd9190612fd5565b9081526020016040518091039020600601879080600181540180825580915050600190039060005260206000200160009091909190916101000a81548173ffffffffffffffffffffffffffffffffffffffff021916908373ffffffffffffffffffffffffffffffffffffffff1602179055505050505050505050565b6060600260008373ffffffffffffffffffffffffffffffffffffffff1673ffffffffffffffffffffffffffffffffffffffff16815260200190815260200160002060030160009054906101000a900460ff161561180d576040518060400160405280600881526020017f637573746f6d6572000000000000000000000000000000000000000000000000815250905061196a565b600460008373ffffffffffffffffffffffffffffffffffffffff1673ffffffffffffffffffffffffffffffffffffffff16815260200190815260200160002060030160009054906101000a900460ff161561189f576040518060400160405280600c81526020017f6d616e7566616374757265720000000000000000000000000000000000000000815250905061196a565b600360008373ffffffffffffffffffffffffffffffffffffffff1673ffffffffffffffffffffffffffffffffffffffff16815260200190815260200160002060020160009054906101000a900460ff1615611931576040518060400160405280600881526020017f72657461696c6572000000000000000000000000000000000000000000000000815250905061196a565b6040518060400160405280600381526020017f6e6577000000000000000000000000000000000000000000000000000000000081525090505b919050565b81600180826040516119819190612fd5565b908152602001604051809103902060000154146119d3576040517f08c379a00000000000000000000000000000000000000000000000000000000081526004016119ca906132dc565b60405180910390fd5b81600360008273ffffffffffffffffffffffffffffffffffffffff1673ffffffffffffffffffffffffffffffffffffffff16815260200190815260200160002060020160009054906101000a900460ff16611a63576040517f08c379a0000000000000000000000000000000000000000000000000000000008152600401611a5a90613348565b60405180910390fd5b836000600182604051611a769190612fd5565b908152602001604051809103902060040160009054906101000a900473ffffffffffffffffffffffffffffffffffffffff1690508073ffffffffffffffffffffffffffffffffffffffff163373ffffffffffffffffffffffffffffffffffffffff1614611b18576040517f08c379a0000000000000000000000000000000000000000000000000000000008152600401611b0f906133da565b60405180910390fd5b84600187604051611b299190612fd5565b908152602001604051809103902060050160006101000a81548173ffffffffffffffffffffffffffffffffffffffff021916908373ffffffffffffffffffffffffffffffffffffffff160217905550505050505050565b33600360008273ffffffffffffffffffffffffffffffffffffffff1673ffffffffffffffffffffffffffffffffffffffff16815260200190815260200160002060020160009054906101000a900460ff1615611c11576040517f08c379a0000000000000000000000000000000000000000000000000000000008152600401611c0890613446565b60405180910390fd5b611c1961248a565b838160000181905250828160200181905250600181604001901515908115158152505080600360003373ffffffffffffffffffffffffffffffffffffffff1673ffffffffffffffffffffffffffffffffffffffff1681526020019081526020016000206000820151816000019081611c919190613612565b506020820151816001019081611ca79190613612565b5060408201518160020160006101000a81548160ff02191690831515021790555090505050505050565b33600460008273ffffffffffffffffffffffffffffffffffffffff1673ffffffffffffffffffffffffffffffffffffffff16815260200190815260200160002060030160009054906101000a900460ff1615611d62576040517f08c379a0000000000000000000000000000000000000000000000000000000008152600401611d5990613730565b60405180910390fd5b611d6a612460565b848160000181905250838160200181905250828160400181905250600181606001901515908115158152505080600460003373ffffffffffffffffffffffffffffffffffffffff1673ffffffffffffffffffffffffffffffffffffffff1681526020019081526020016000206000820151816000019081611deb9190613612565b506020820151816001019081611e019190613612565b506040820151816002019081611e179190613612565b5060608201518160030160006101000a81548160ff0219169083151502179055509050505050505050565b8160018082604051611e549190612fd5565b90815260200160405180910390206000015414611ea6576040517f08c379a0000000000000000000000000000000000000000000000000000000008152600401611e9d906132dc565b60405180910390fd5b81600260008273ffffffffffffffffffffffffffffffffffffffff1673ffffffffffffffffffffffffffffffffffffffff16815260200190815260200160002060030160009054906101000a900460ff16611f36576040517f08c379a0000000000000000000000000000000000000000000000000000000008152600401611f2d90613270565b60405180910390fd5b836000600182604051611f499190612fd5565b908152602001604051809103902060050160009054906101000a900473ffffffffffffffffffffffffffffffffffffffff1690503373ffffffffffffffffffffffffffffffffffffffff168173ffffffffffffffffffffffffffffffffffffffff1614611feb576040517f08c379a0000000000000000000000000000000000000000000000000000000008152600401611fe2906137c2565b60405180910390fd5b600186604051611ffb9190612fd5565b9081526020016040518091039020600601859080600181540180825580915050600190039060005260206000200160009091909190916101000a81548173ffffffffffffffffffffffffffffffffffffffff021916908373ffffffffffffffffffffffffffffffffffffffff160217905550505050505050565b33600260008273ffffffffffffffffffffffffffffffffffffffff1673ffffffffffffffffffffffffffffffffffffffff16815260200190815260200160002060030160009054906101000a900460ff1615612106576040517f08c379a00000000000000000000000000000000000000000000000000000000081526004016120fd9061382e565b60405180910390fd5b61210e6124ad565b838160000181905250828160200181905250600181606001901515908115158152505080600260003373ffffffffffffffffffffffffffffffffffffffff1673ffffffffffffffffffffffffffffffffffffffff16815260200190815260200160002060008201518160000190816121869190613612565b50602082015181600101908161219c9190613612565b5060408201518160020190805190602001906121b99291906124d7565b5060608201518160030160006101000a81548160ff02191690831515021790555090505050505050565b33600460008273ffffffffffffffffffffffffffffffffffffffff1673ffffffffffffffffffffffffffffffffffffffff16815260200190815260200160002060030160009054906101000a900460ff16612273576040517f08c379a000000000000000000000000000000000000000000000000000000000815260040161226a9061389a565b60405180910390fd5b8460006001826040516122869190612fd5565b908152602001604051809103902060000154146122d8576040517f08c379a00000000000000000000000000000000000000000000000000000000081526004016122cf90613906565b60405180910390fd5b6122e0612530565b858160200181905250848160400181905250600181600001818152505083816060018190525033816080019073ffffffffffffffffffffffffffffffffffffffff16908173ffffffffffffffffffffffffffffffffffffffff16815250508060018860405161234f9190612fd5565b908152602001604051809103902060008201518160000155602082015181600101908161237c9190613612565b5060408201518160020190816123929190613612565b5060608201518160030190816123a89190613612565b5060808201518160040160006101000a81548173ffffffffffffffffffffffffffffffffffffffff021916908373ffffffffffffffffffffffffffffffffffffffff16021790555060a08201518160050160006101000a81548173ffffffffffffffffffffffffffffffffffffffff021916908373ffffffffffffffffffffffffffffffffffffffff16021790555060c0820151816006019080519060200190612453929190612599565b5090505050505050505050565b60405180608001604052806060815260200160608152602001606081526020016000151581525090565b604051806060016040528060608152602001606081526020016000151581525090565b60405180608001604052806060815260200160608152602001606081526020016000151581525090565b82805482825590600052602060002090810192821561251f579160200282015b8281111561251e57825182908161250e9190613612565b50916020019190600101906124f7565b5b50905061252c9190612623565b5090565b6040518060e0016040528060008152602001606081526020016060815260200160608152602001600073ffffffffffffffffffffffffffffffffffffffff168152602001600073ffffffffffffffffffffffffffffffffffffffff168152602001606081525090565b828054828255906000526020600020908101928215612612579160200282015b828111156126115782518260006101000a81548173ffffffffffffffffffffffffffffffffffffffff021916908373ffffffffffffffffffffffffffffffffffffffff160217905550916020019190600101906125b9565b5b50905061261f9190612647565b5090565b5b80821115612643576000818161263a9190612664565b50600101612624565b5090565b5b80821115612660576000816000905550600101612648565b5090565b50805461267090613087565b6000825580601f1061268257506126a1565b601f0160209004906000526020600020908101906126a09190612647565b5b50565b6000604051905090565b600080fd5b600080fd5b600080fd5b600080fd5b6000601f19601f8301169050919050565b7f4e487b7100000000000000000000000000000000000000000000000000000000600052604160045260246000fd5b61270b826126c2565b810181811067ffffffffffffffff8211171561272a576127296126d3565b5b80604052505050565b600061273d6126a4565b90506127498282612702565b919050565b600067ffffffffffffffff821115612769576127686126d3565b5b612772826126c2565b9050602081019050919050565b82818337600083830152505050565b60006127a161279c8461274e565b612733565b9050828152602081018484840111156127bd576127bc6126bd565b5b6127c884828561277f565b509392505050565b600082601f8301126127e5576127e46126b8565b5b81356127f584826020860161278e565b91505092915050565b600060208284031215612814576128136126ae565b5b600082013567ffffffffffffffff811115612832576128316126b3565b5b61283e848285016127d0565b91505092915050565b6000819050919050565b61285a81612847565b82525050565b600081519050919050565b600082825260208201905092915050565b60005b8381101561289a57808201518184015260208101905061287f565b60008484015250505050565b60006128b182612860565b6128bb818561286b565b93506128cb81856020860161287c565b6128d4816126c2565b840191505092915050565b600082825260208201905092915050565b60006128fb82612860565b61290581856128df565b935061291581856020860161287c565b61291e816126c2565b840191505092915050565b60008115159050919050565b61293e81612929565b82525050565b6000608083016000830151848203600086015261296182826128f0565b9150506020830151848203602086015261297b82826128f0565b9150506040830151848203604086015261299582826128f0565b91505060608301516129aa6060860182612935565b508091505092915050565b600060608301600083015184820360008601526129d282826128f0565b915050602083015184820360208601526129ec82826128f0565b9150506040830151612a016040860182612935565b508091505092915050565b600081519050919050565b600082825260208201905092915050565b6000819050602082019050919050565b600081519050919050565b600082825260208201905092915050565b6000819050602082019050919050565b6000612a7083836128f0565b905092915050565b6000602082019050919050565b6000612a9082612a38565b612a9a8185612a43565b935083602082028501612aac85612a54565b8060005b85811015612ae85784840389528151612ac98582612a64565b9450612ad483612a78565b925060208a01995050600181019050612ab0565b50829750879550505050505092915050565b60006080830160008301518482036000860152612b1782826128f0565b91505060208301518482036020860152612b3182826128f0565b91505060408301518482036040860152612b4b8282612a85565b9150506060830151612b606060860182612935565b508091505092915050565b6000612b778383612afa565b905092915050565b6000602082019050919050565b6000612b9782612a0c565b612ba18185612a17565b935083602082028501612bb385612a28565b8060005b85811015612bef5784840389528151612bd08582612b6b565b9450612bdb83612b7f565b925060208a01995050600181019050612bb7565b50829750879550505050505092915050565b600060e082019050612c16600083018a612851565b8181036020830152612c2881896128a6565b90508181036040830152612c3c81886128a6565b90508181036060830152612c5081876128a6565b90508181036080830152612c648186612944565b905081810360a0830152612c7881856129b5565b905081810360c0830152612c8c8184612b8c565b905098975050505050505050565b600073ffffffffffffffffffffffffffffffffffffffff82169050919050565b6000612cc582612c9a565b9050919050565b612cd581612cba565b8114612ce057600080fd5b50565b600081359050612cf281612ccc565b92915050565b60008060408385031215612d0f57612d0e6126ae565b5b600083013567ffffffffffffffff811115612d2d57612d2c6126b3565b5b612d39858286016127d0565b9250506020612d4a85828601612ce3565b9150509250929050565b600060208284031215612d6a57612d696126ae565b5b6000612d7884828501612ce3565b91505092915050565b60006020820190508181036000830152612d9b81846128a6565b905092915050565b60008060408385031215612dba57612db96126ae565b5b600083013567ffffffffffffffff811115612dd857612dd76126b3565b5b612de4858286016127d0565b925050602083013567ffffffffffffffff811115612e0557612e046126b3565b5b612e11858286016127d0565b9150509250929050565b600080600060608486031215612e3457612e336126ae565b5b600084013567ffffffffffffffff811115612e5257612e516126b3565b5b612e5e868287016127d0565b935050602084013567ffffffffffffffff811115612e7f57612e7e6126b3565b5b612e8b868287016127d0565b925050604084013567ffffffffffffffff811115612eac57612eab6126b3565b5b612eb8868287016127d0565b9150509250925092565b60008060008060808587031215612edc57612edb6126ae565b5b600085013567ffffffffffffffff811115612efa57612ef96126b3565b5b612f06878288016127d0565b945050602085013567ffffffffffffffff811115612f2757612f266126b3565b5b612f33878288016127d0565b935050604085013567ffffffffffffffff811115612f5457612f536126b3565b5b612f60878288016127d0565b925050606085013567ffffffffffffffff811115612f8157612f806126b3565b5b612f8d878288016127d0565b91505092959194509250565b600081905092915050565b6000612faf82612860565b612fb98185612f99565b9350612fc981856020860161287c565b80840191505092915050565b6000612fe18284612fa4565b915081905092915050565b7f70726f6475637420646f65736e27742065786973740000000000000000000000600082015250565b600061302260158361286b565b915061302d82612fec565b602082019050919050565b6000602082019050818103600083015261305181613015565b9050919050565b7f4e487b7100000000000000000000000000000000000000000000000000000000600052602260045260246000fd5b6000600282049050600182168061309f57607f821691505b6020821081036130b2576130b1613058565b5b50919050565b7f4e487b7100000000000000000000000000000000000000000000000000000000600052601160045260246000fd5b60006130f282612847565b91506130fd83612847565b9250828203905081811115613115576131146130b8565b5b92915050565b7f4e487b7100000000000000000000000000000000000000000000000000000000600052603260045260246000fd5b7f796f75206172656e277420746865206f776e6572206f6620746869732070726f60008201527f6475637400000000000000000000000000000000000000000000000000000000602082015250565b60006131a660248361286b565b91506131b18261314a565b604082019050919050565b600060208201905081810360008301526131d581613199565b9050919050565b60006131e782612847565b91507fffffffffffffffffffffffffffffffffffffffffffffffffffffffffffffffff8203613219576132186130b8565b5b600182019050919050565b7f637573746f6d657220646f65736e277420657869737400000000000000000000600082015250565b600061325a60168361286b565b915061326582613224565b602082019050919050565b600060208201905081810360008301526132898161324d565b9050919050565b7f70726f647563742069732073746f6c656e000000000000000000000000000000600082015250565b60006132c660118361286b565b91506132d182613290565b602082019050919050565b600060208201905081810360008301526132f5816132b9565b9050919050565b7f72657461696c657220646f65736e277420657869737400000000000000000000600082015250565b600061333260168361286b565b915061333d826132fc565b602082019050919050565b6000602082019050818103600083015261336181613325565b9050919050565b7f796f75206172656e277420746865206d616e756661637475726572206f66207460008201527f6869732070726f64756374000000000000000000000000000000000000000000602082015250565b60006133c4602b8361286b565b91506133cf82613368565b604082019050919050565b600060208201905081810360008301526133f3816133b7565b9050919050565b7f72657461696c657220616c726561647920657869737473000000000000000000600082015250565b600061343060178361286b565b915061343b826133fa565b602082019050919050565b6000602082019050818103600083015261345f81613423565b9050919050565b60008190508160005260206000209050919050565b60006020601f8301049050919050565b600082821b905092915050565b6000600883026134c87fffffffffffffffffffffffffffffffffffffffffffffffffffffffffffffffff8261348b565b6134d2868361348b565b95508019841693508086168417925050509392505050565b6000819050919050565b600061350f61350a61350584612847565b6134ea565b612847565b9050919050565b6000819050919050565b613529836134f4565b61353d61353582613516565b848454613498565b825550505050565b600090565b613552613545565b61355d818484613520565b505050565b5b818110156135815761357660008261354a565b600181019050613563565b5050565b601f8211156135c65761359781613466565b6135a08461347b565b810160208510156135af578190505b6135c36135bb8561347b565b830182613562565b50505b505050565b600082821c905092915050565b60006135e9600019846008026135cb565b1980831691505092915050565b600061360283836135d8565b9150826002028217905092915050565b61361b82612860565b67ffffffffffffffff811115613634576136336126d3565b5b61363e8254613087565b613649828285613585565b600060209050601f83116001811461367c576000841561366a578287015190505b61367485826135f6565b8655506136dc565b601f19841661368a86613466565b60005b828110156136b25784890151825560018201915060208501945060208101905061368d565b868310156136cf57848901516136cb601f8916826135d8565b8355505b6001600288020188555050505b505050505050565b7f6d616e75666163747572657220616c7265616479206578697374730000000000600082015250565b600061371a601b8361286b565b9150613725826136e4565b602082019050919050565b600060208201905081810360008301526137498161370d565b9050919050565b7f796f75206172656e2774207468652072657461696c6572206f6620746869732060008201527f70726f6475637400000000000000000000000000000000000000000000000000602082015250565b60006137ac60278361286b565b91506137b782613750565b604082019050919050565b600060208201905081810360008301526137db8161379f565b9050919050565b7f637573746f6d657220616c726561647920657869737473000000000000000000600082015250565b600061381860178361286b565b9150613823826137e2565b602082019050919050565b600060208201905081810360008301526138478161380b565b9050919050565b7f6d616e75666163747572657220646f65736e2774206578697374000000000000600082015250565b6000613884601a8361286b565b915061388f8261384e565b602082019050919050565b600060208201905081810360008301526138b381613877565b9050919050565b7f70726f6475637420616c72656164792065786973747300000000000000000000600082015250565b60006138f060168361286b565b91506138fb826138ba565b602082019050919050565b6000602082019050818103600083015261391f816138e3565b905091905056fea2646970667358221220631ade41c07eb3e45ef64e643823b8315ce7a078ef7637445d31358fa174f42664736f6c63430008110033",
  "linkReferences": {},
  "deployedLinkReferences": {}
}