{
  "_format": "hh-sol-artifact-1",
  "contractName": "ProductAuthentication",
  "sourceName": "contracts/ProductAuthentication.sol",
  "abi": [
    {
      "inputs": [],
      "stateMutability": "nonpayable",
      "type": "constructor"
    },
    {
      "inputs": [
        {
          "internalType": "string",
          "name": "_productHash",
          "type": "string"
        },
        {
          "internalType": "address",
          "name": "_retailerAddress",
          "type": "address"
        }
      ],
      "name": "addRetailerToProduct",
      "outputs": [],
      "stateMutability": "nonpayable",
      "type": "function"
    },
    {
      "inputs": [
        {
          "internalType": "string",
          "name": "_name",
          "type": "string"
        },
        {
          "internalType": "string",
          "name": "_phone",
          "type": "string"
        }
      ],
      "name": "createCustomer",
      "outputs": [],
      "stateMutability": "nonpayable",
      "type": "function"
    },
    {
      "inputs": [
        {
          "internalType": "string",
          "name": "_name",
          "type": "string"
        },
        {
          "internalType": "string",
          "name": "_location",
          "type": "string"
        },
        {
          "internalType": "string",
          "name": "_timestamp",
          "type": "string"
        }
      ],
      "name": "createManufacturer",
      "outputs": [],
      "stateMutability": "nonpayable",
      "type": "function"
    },
    {
      "inputs": [
        {
          "internalType": "string",
          "name": "_productHash",
          "type": "string"
        },
        {
          "internalType": "string",
          "name": "_brand",
          "type": "string"
        },
        {
          "internalType": "string",
          "name": "_model",
          "type": "string"
        },
        {
          "internalType": "string",
          "name": "_description",
          "type": "string"
        }
      ],
      "name": "createProduct",
      "outputs": [],
      "stateMutability": "nonpayable",
      "type": "function"
    },
    {
      "inputs": [
        {
          "internalType": "string",
          "name": "_retailerName",
          "type": "string"
        },
        {
          "internalType": "string",
          "name": "_retailerLocation",
          "type": "string"
        }
      ],
      "name": "createRetailer",
      "outputs": [],
      "stateMutability": "nonpayable",
      "type": "function"
    },
    {
      "inputs": [
        {
          "internalType": "string",
          "name": "_productHash",
          "type": "string"
        }
      ],
      "name": "getProductDetails",
      "outputs": [
        {
          "internalType": "uint256",
          "name": "status",
          "type": "uint256"
        },
        {
          "internalType": "string",
          "name": "",
          "type": "string"
        },
        {
          "internalType": "string",
          "name": "",
          "type": "string"
        },
        {
          "internalType": "string",
          "name": "",
          "type": "string"
        },
        {
          "components": [
            {
              "internalType": "string",
              "name": "name",
              "type": "string"
            },
            {
              "internalType": "string",
              "name": "location",
              "type": "string"
            },
            {
              "internalType": "string",
              "name": "timestamp",
              "type": "string"
            },
            {
              "internalType": "bool",
              "name": "doesExist",
              "type": "bool"
            }
          ],
          "internalType": "struct ProductAuthentication.Manufacturer",
          "name": "",
          "type": "tuple"
        },
        {
          "components": [
            {
              "internalType": "string",
              "name": "name",
              "type": "string"
            },
            {
              "internalType": "string",
              "name": "location",
              "type": "string"
            },
            {
              "internalType": "bool",
              "name": "doesExist",
              "type": "bool"
            }
          ],
          "internalType": "struct ProductAuthentication.Retailer",
          "name": "",
          "type": "tuple"
        },
        {
          "components": [
            {
              "internalType": "string",
              "name": "name",
              "type": "string"
            },
            {
              "internalType": "string",
              "name": "phone",
              "type": "string"
            },
            {
              "internalType": "string[]",
              "name": "products",
              "type": "string[]"
            },
            {
              "internalType": "bool",
              "name": "doesExist",
              "type": "bool"
            }
          ],
          "internalType": "struct ProductAuthentication.Customer[]",
          "name": "",
          "type": "tuple[]"
        }
      ],
      "stateMutability": "view",
      "type": "function"
    },
    {
      "inputs": [
        {
          "internalType": "string",
          "name": "_productHash",
          "type": "string"
        }
      ],
      "name": "markProductAsStolen",
      "outputs": [],
      "stateMutability": "nonpayable",
      "type": "function"
    },
    {
      "inputs": [
        {
          "internalType": "string",
          "name": "_productHash",
          "type": "string"
        },
        {
          "internalType": "address",
          "name": "_intialOwner",
          "type": "address"
        }
      ],
      "name": "transferFromRetailerToIntialOwner",
      "outputs": [],
      "stateMutability": "nonpayable",
      "type": "function"
    },
    {
      "inputs": [
        {
          "internalType": "string",
          "name": "_productHash",
          "type": "string"
        },
        {
          "internalType": "address",
          "name": "_newOwner",
          "type": "address"
        }
      ],
      "name": "transferOwnershipFromCustomer",
      "outputs": [],
      "stateMutability": "nonpayable",
      "type": "function"
    }
  ],
  "bytecode": "0x608060405234801561001057600080fd5b50336000806101000a81548173ffffffffffffffffffffffffffffffffffffffff021916908373ffffffffffffffffffffffffffffffffffffffff1602179055506136dc806100606000396000f3fe608060405234801561001057600080fd5b50600436106100935760003560e01c806374a353841161006657806374a3538414610122578063a6f43d501461013e578063bb7a91671461015a578063c43fe7c414610176578063eb51e3cd1461019257610093565b80630dfa029e14610098578063198c59b0146100b45780632274453f146100ea5780635054873114610106575b600080fd5b6100b260048036038101906100ad91906125cd565b6101ae565b005b6100ce60048036038101906100c991906125cd565b6106a9565b6040516100e197969594939291906129d0565b60405180910390f35b61010460048036038101906100ff9190612ac7565b611157565b005b610120600480360381019061011b9190612ac7565b61173e565b005b61013c60048036038101906101379190612b23565b61194f565b005b61015860048036038101906101539190612b9b565b611aa0565b005b610174600480360381019061016f9190612ac7565b611c11565b005b610190600480360381019061018b9190612b23565b611e44565b005b6101ac60048036038101906101a79190612c42565b611fb2565b005b8060006001826040516101c19190612d55565b90815260200160405180910390206000015403610213576040517f08c379a000000000000000000000000000000000000000000000000000000000815260040161020a90612db8565b60405180910390fd5b8160006001826040516102269190612d55565b90815260200160405180910390206040518060e00160405290816000820154815260200160018201805461025990612e07565b80601f016020809104026020016040519081016040528092919081815260200182805461028590612e07565b80156102d25780601f106102a7576101008083540402835291602001916102d2565b820191906000526020600020905b8154815290600101906020018083116102b557829003601f168201915b505050505081526020016002820180546102eb90612e07565b80601f016020809104026020016040519081016040528092919081815260200182805461031790612e07565b80156103645780601f1061033957610100808354040283529160200191610364565b820191906000526020600020905b81548152906001019060200180831161034757829003601f168201915b5050505050815260200160038201805461037d90612e07565b80601f01602080910402602001604051908101604052809291908181526020018280546103a990612e07565b80156103f65780601f106103cb576101008083540402835291602001916103f6565b820191906000526020600020905b8154815290600101906020018083116103d957829003601f168201915b505050505081526020016004820160009054906101000a900473ffffffffffffffffffffffffffffffffffffffff1673ffffffffffffffffffffffffffffffffffffffff1673ffffffffffffffffffffffffffffffffffffffff1681526020016005820160009054906101000a900473ffffffffffffffffffffffffffffffffffffffff1673ffffffffffffffffffffffffffffffffffffffff1673ffffffffffffffffffffffffffffffffffffffff1681526020016006820180548060200260200160405190810160405280929190818152602001828054801561053057602002820191906000526020600020905b8160009054906101000a900473ffffffffffffffffffffffffffffffffffffffff1673ffffffffffffffffffffffffffffffffffffffff16815260200190600101908083116104e6575b505050505081525050905060008160c0015151905060008082146105bf5760018460405161055e9190612d55565b908152602001604051809103902060060160018361057c9190612e67565b8154811061058d5761058c612e9b565b5b9060005260206000200160009054906101000a900473ffffffffffffffffffffffffffffffffffffffff16905061060c565b600073ffffffffffffffffffffffffffffffffffffffff168360a0015173ffffffffffffffffffffffffffffffffffffffff1614610603578260a00151905061060b565b826080015190505b5b3373ffffffffffffffffffffffffffffffffffffffff168173ffffffffffffffffffffffffffffffffffffffff161461067a576040517f08c379a000000000000000000000000000000000000000000000000000000000815260040161067190612f3c565b60405180910390fd5b600260018760405161068c9190612d55565b908152602001604051809103902060000181905550505050505050565b600060608060606106b861222f565b6106c0612259565b60608760006001826040516106d59190612d55565b90815260200160405180910390206000015403610727576040517f08c379a000000000000000000000000000000000000000000000000000000000815260040161071e90612db8565b60405180910390fd5b600060018a6040516107399190612d55565b90815260200160405180910390206040518060e00160405290816000820154815260200160018201805461076c90612e07565b80601f016020809104026020016040519081016040528092919081815260200182805461079890612e07565b80156107e55780601f106107ba576101008083540402835291602001916107e5565b820191906000526020600020905b8154815290600101906020018083116107c857829003601f168201915b505050505081526020016002820180546107fe90612e07565b80601f016020809104026020016040519081016040528092919081815260200182805461082a90612e07565b80156108775780601f1061084c57610100808354040283529160200191610877565b820191906000526020600020905b81548152906001019060200180831161085a57829003601f168201915b5050505050815260200160038201805461089090612e07565b80601f01602080910402602001604051908101604052809291908181526020018280546108bc90612e07565b80156109095780601f106108de57610100808354040283529160200191610909565b820191906000526020600020905b8154815290600101906020018083116108ec57829003601f168201915b505050505081526020016004820160009054906101000a900473ffffffffffffffffffffffffffffffffffffffff1673ffffffffffffffffffffffffffffffffffffffff1673ffffffffffffffffffffffffffffffffffffffff1681526020016005820160009054906101000a900473ffffffffffffffffffffffffffffffffffffffff1673ffffffffffffffffffffffffffffffffffffffff1673ffffffffffffffffffffffffffffffffffffffff16815260200160068201805480602002602001604051908101604052809291908181526020018280548015610a4357602002820191906000526020600020905b8160009054906101000a900473ffffffffffffffffffffffffffffffffffffffff1673ffffffffffffffffffffffffffffffffffffffff16815260200190600101908083116109f9575b5050505050815250509050600060046000836080015173ffffffffffffffffffffffffffffffffffffffff1673ffffffffffffffffffffffffffffffffffffffff168152602001908152602001600020604051806080016040529081600082018054610aae90612e07565b80601f0160208091040260200160405190810160405280929190818152602001828054610ada90612e07565b8015610b275780601f10610afc57610100808354040283529160200191610b27565b820191906000526020600020905b815481529060010190602001808311610b0a57829003601f168201915b50505050508152602001600182018054610b4090612e07565b80601f0160208091040260200160405190810160405280929190818152602001828054610b6c90612e07565b8015610bb95780601f10610b8e57610100808354040283529160200191610bb9565b820191906000526020600020905b815481529060010190602001808311610b9c57829003601f168201915b50505050508152602001600282018054610bd290612e07565b80601f0160208091040260200160405190810160405280929190818152602001828054610bfe90612e07565b8015610c4b5780601f10610c2057610100808354040283529160200191610c4b565b820191906000526020600020905b815481529060010190602001808311610c2e57829003601f168201915b505050505081526020016003820160009054906101000a900460ff16151515158152505090506000600360008460a0015173ffffffffffffffffffffffffffffffffffffffff1673ffffffffffffffffffffffffffffffffffffffff168152602001908152602001600020604051806060016040529081600082018054610cd190612e07565b80601f0160208091040260200160405190810160405280929190818152602001828054610cfd90612e07565b8015610d4a5780601f10610d1f57610100808354040283529160200191610d4a565b820191906000526020600020905b815481529060010190602001808311610d2d57829003601f168201915b50505050508152602001600182018054610d6390612e07565b80601f0160208091040260200160405190810160405280929190818152602001828054610d8f90612e07565b8015610ddc5780601f10610db157610100808354040283529160200191610ddc565b820191906000526020600020905b815481529060010190602001808311610dbf57829003601f168201915b505050505081526020016002820160009054906101000a900460ff161515151581525050905060008360c0015151905060008167ffffffffffffffff811115610e2857610e276124a2565b5b604051908082528060200260200182016040528015610e6157816020015b610e4e61227c565b815260200190600190039081610e465790505b50905060005b8281101561112057600260008760c001518381518110610e8a57610e89612e9b565b5b602002602001015173ffffffffffffffffffffffffffffffffffffffff1673ffffffffffffffffffffffffffffffffffffffff168152602001908152602001600020604051806080016040529081600082018054610ee790612e07565b80601f0160208091040260200160405190810160405280929190818152602001828054610f1390612e07565b8015610f605780601f10610f3557610100808354040283529160200191610f60565b820191906000526020600020905b815481529060010190602001808311610f4357829003601f168201915b50505050508152602001600182018054610f7990612e07565b80601f0160208091040260200160405190810160405280929190818152602001828054610fa590612e07565b8015610ff25780601f10610fc757610100808354040283529160200191610ff2565b820191906000526020600020905b815481529060010190602001808311610fd557829003601f168201915b5050505050815260200160028201805480602002602001604051908101604052809291908181526020016000905b828210156110cc57838290600052602060002001805461103f90612e07565b80601f016020809104026020016040519081016040528092919081815260200182805461106b90612e07565b80156110b85780601f1061108d576101008083540402835291602001916110b8565b820191906000526020600020905b81548152906001019060200180831161109b57829003601f168201915b505050505081526020019060010190611020565b5050505081526020016003820160009054906101000a900460ff16151515158152505082828151811061110257611101612e9b565b5b6020026020010181905250808061111890612f5c565b915050610e67565b5084600001518560200151866040015187606001518787869c509c509c509c509c509c509c50505050505050919395979092949650565b80600260008273ffffffffffffffffffffffffffffffffffffffff1673ffffffffffffffffffffffffffffffffffffffff16815260200190815260200160002060030160009054906101000a900460ff166111e7576040517f08c379a00000000000000000000000000000000000000000000000000000000081526004016111de90612ff0565b60405180910390fd5b82600180826040516111f99190612d55565b9081526020016040518091039020600001541461124b576040517f08c379a00000000000000000000000000000000000000000000000000000000081526004016112429061305c565b60405180910390fd5b83600060018260405161125e9190612d55565b90815260200160405180910390206040518060e00160405290816000820154815260200160018201805461129190612e07565b80601f01602080910402602001604051908101604052809291908181526020018280546112bd90612e07565b801561130a5780601f106112df5761010080835404028352916020019161130a565b820191906000526020600020905b8154815290600101906020018083116112ed57829003601f168201915b5050505050815260200160028201805461132390612e07565b80601f016020809104026020016040519081016040528092919081815260200182805461134f90612e07565b801561139c5780601f106113715761010080835404028352916020019161139c565b820191906000526020600020905b81548152906001019060200180831161137f57829003601f168201915b505050505081526020016003820180546113b590612e07565b80601f01602080910402602001604051908101604052809291908181526020018280546113e190612e07565b801561142e5780601f106114035761010080835404028352916020019161142e565b820191906000526020600020905b81548152906001019060200180831161141157829003601f168201915b505050505081526020016004820160009054906101000a900473ffffffffffffffffffffffffffffffffffffffff1673ffffffffffffffffffffffffffffffffffffffff1673ffffffffffffffffffffffffffffffffffffffff1681526020016005820160009054906101000a900473ffffffffffffffffffffffffffffffffffffffff1673ffffffffffffffffffffffffffffffffffffffff1673ffffffffffffffffffffffffffffffffffffffff1681526020016006820180548060200260200160405190810160405280929190818152602001828054801561156857602002820191906000526020600020905b8160009054906101000a900473ffffffffffffffffffffffffffffffffffffffff1673ffffffffffffffffffffffffffffffffffffffff168152602001906001019080831161151e575b505050505081525050905060008160c0015151905060008082146115f7576001846040516115969190612d55565b90815260200160405180910390206006016001836115b49190612e67565b815481106115c5576115c4612e9b565b5b9060005260206000200160009054906101000a900473ffffffffffffffffffffffffffffffffffffffff169050611644565b600073ffffffffffffffffffffffffffffffffffffffff168360a0015173ffffffffffffffffffffffffffffffffffffffff161461163b578260a001519050611643565b826080015190505b5b3373ffffffffffffffffffffffffffffffffffffffff168173ffffffffffffffffffffffffffffffffffffffff16146116b2576040517f08c379a00000000000000000000000000000000000000000000000000000000081526004016116a990612f3c565b60405180910390fd5b6001886040516116c29190612d55565b9081526020016040518091039020600601879080600181540180825580915050600190039060005260206000200160009091909190916101000a81548173ffffffffffffffffffffffffffffffffffffffff021916908373ffffffffffffffffffffffffffffffffffffffff1602179055505050505050505050565b81600180826040516117509190612d55565b908152602001604051809103902060000154146117a2576040517f08c379a00000000000000000000000000000000000000000000000000000000081526004016117999061305c565b60405180910390fd5b81600360008273ffffffffffffffffffffffffffffffffffffffff1673ffffffffffffffffffffffffffffffffffffffff16815260200190815260200160002060020160009054906101000a900460ff16611832576040517f08c379a0000000000000000000000000000000000000000000000000000000008152600401611829906130c8565b60405180910390fd5b8360006001826040516118459190612d55565b908152602001604051809103902060040160009054906101000a900473ffffffffffffffffffffffffffffffffffffffff1690508073ffffffffffffffffffffffffffffffffffffffff163373ffffffffffffffffffffffffffffffffffffffff16146118e7576040517f08c379a00000000000000000000000000000000000000000000000000000000081526004016118de9061315a565b60405180910390fd5b846001876040516118f89190612d55565b908152602001604051809103902060050160006101000a81548173ffffffffffffffffffffffffffffffffffffffff021916908373ffffffffffffffffffffffffffffffffffffffff160217905550505050505050565b33600360008273ffffffffffffffffffffffffffffffffffffffff1673ffffffffffffffffffffffffffffffffffffffff16815260200190815260200160002060020160009054906101000a900460ff16156119e0576040517f08c379a00000000000000000000000000000000000000000000000000000000081526004016119d7906131c6565b60405180910390fd5b6119e8612259565b838160000181905250828160200181905250600181604001901515908115158152505080600360003373ffffffffffffffffffffffffffffffffffffffff1673ffffffffffffffffffffffffffffffffffffffff1681526020019081526020016000206000820151816000019081611a609190613392565b506020820151816001019081611a769190613392565b5060408201518160020160006101000a81548160ff02191690831515021790555090505050505050565b33600460008273ffffffffffffffffffffffffffffffffffffffff1673ffffffffffffffffffffffffffffffffffffffff16815260200190815260200160002060030160009054906101000a900460ff1615611b31576040517f08c379a0000000000000000000000000000000000000000000000000000000008152600401611b28906134b0565b60405180910390fd5b611b3961222f565b848160000181905250838160200181905250828160400181905250600181606001901515908115158152505080600460003373ffffffffffffffffffffffffffffffffffffffff1673ffffffffffffffffffffffffffffffffffffffff1681526020019081526020016000206000820151816000019081611bba9190613392565b506020820151816001019081611bd09190613392565b506040820151816002019081611be69190613392565b5060608201518160030160006101000a81548160ff0219169083151502179055509050505050505050565b8160018082604051611c239190612d55565b90815260200160405180910390206000015414611c75576040517f08c379a0000000000000000000000000000000000000000000000000000000008152600401611c6c9061305c565b60405180910390fd5b81600260008273ffffffffffffffffffffffffffffffffffffffff1673ffffffffffffffffffffffffffffffffffffffff16815260200190815260200160002060030160009054906101000a900460ff16611d05576040517f08c379a0000000000000000000000000000000000000000000000000000000008152600401611cfc90612ff0565b60405180910390fd5b836000600182604051611d189190612d55565b908152602001604051809103902060050160009054906101000a900473ffffffffffffffffffffffffffffffffffffffff1690503373ffffffffffffffffffffffffffffffffffffffff168173ffffffffffffffffffffffffffffffffffffffff1614611dba576040517f08c379a0000000000000000000000000000000000000000000000000000000008152600401611db190613542565b60405180910390fd5b600186604051611dca9190612d55565b9081526020016040518091039020600601859080600181540180825580915050600190039060005260206000200160009091909190916101000a81548173ffffffffffffffffffffffffffffffffffffffff021916908373ffffffffffffffffffffffffffffffffffffffff160217905550505050505050565b33600260008273ffffffffffffffffffffffffffffffffffffffff1673ffffffffffffffffffffffffffffffffffffffff16815260200190815260200160002060030160009054906101000a900460ff1615611ed5576040517f08c379a0000000000000000000000000000000000000000000000000000000008152600401611ecc906135ae565b60405180910390fd5b611edd61227c565b838160000181905250828160200181905250600181606001901515908115158152505080600260003373ffffffffffffffffffffffffffffffffffffffff1673ffffffffffffffffffffffffffffffffffffffff1681526020019081526020016000206000820151816000019081611f559190613392565b506020820151816001019081611f6b9190613392565b506040820151816002019080519060200190611f889291906122a6565b5060608201518160030160006101000a81548160ff02191690831515021790555090505050505050565b33600460008273ffffffffffffffffffffffffffffffffffffffff1673ffffffffffffffffffffffffffffffffffffffff16815260200190815260200160002060030160009054906101000a900460ff16612042576040517f08c379a00000000000000000000000000000000000000000000000000000000081526004016120399061361a565b60405180910390fd5b8460006001826040516120559190612d55565b908152602001604051809103902060000154146120a7576040517f08c379a000000000000000000000000000000000000000000000000000000000815260040161209e90613686565b60405180910390fd5b6120af6122ff565b858160200181905250848160400181905250600181600001818152505083816060018190525033816080019073ffffffffffffffffffffffffffffffffffffffff16908173ffffffffffffffffffffffffffffffffffffffff16815250508060018860405161211e9190612d55565b908152602001604051809103902060008201518160000155602082015181600101908161214b9190613392565b5060408201518160020190816121619190613392565b5060608201518160030190816121779190613392565b5060808201518160040160006101000a81548173ffffffffffffffffffffffffffffffffffffffff021916908373ffffffffffffffffffffffffffffffffffffffff16021790555060a08201518160050160006101000a81548173ffffffffffffffffffffffffffffffffffffffff021916908373ffffffffffffffffffffffffffffffffffffffff16021790555060c0820151816006019080519060200190612222929190612368565b5090505050505050505050565b60405180608001604052806060815260200160608152602001606081526020016000151581525090565b604051806060016040528060608152602001606081526020016000151581525090565b60405180608001604052806060815260200160608152602001606081526020016000151581525090565b8280548282559060005260206000209081019282156122ee579160200282015b828111156122ed5782518290816122dd9190613392565b50916020019190600101906122c6565b5b5090506122fb91906123f2565b5090565b6040518060e0016040528060008152602001606081526020016060815260200160608152602001600073ffffffffffffffffffffffffffffffffffffffff168152602001600073ffffffffffffffffffffffffffffffffffffffff168152602001606081525090565b8280548282559060005260206000209081019282156123e1579160200282015b828111156123e05782518260006101000a81548173ffffffffffffffffffffffffffffffffffffffff021916908373ffffffffffffffffffffffffffffffffffffffff16021790555091602001919060010190612388565b5b5090506123ee9190612416565b5090565b5b8082111561241257600081816124099190612433565b506001016123f3565b5090565b5b8082111561242f576000816000905550600101612417565b5090565b50805461243f90612e07565b6000825580601f106124515750612470565b601f01602090049060005260206000209081019061246f9190612416565b5b50565b6000604051905090565b600080fd5b600080fd5b600080fd5b600080fd5b6000601f19601f8301169050919050565b7f4e487b7100000000000000000000000000000000000000000000000000000000600052604160045260246000fd5b6124da82612491565b810181811067ffffffffffffffff821117156124f9576124f86124a2565b5b80604052505050565b600061250c612473565b905061251882826124d1565b919050565b600067ffffffffffffffff821115612538576125376124a2565b5b61254182612491565b9050602081019050919050565b82818337600083830152505050565b600061257061256b8461251d565b612502565b90508281526020810184848401111561258c5761258b61248c565b5b61259784828561254e565b509392505050565b600082601f8301126125b4576125b3612487565b5b81356125c484826020860161255d565b91505092915050565b6000602082840312156125e3576125e261247d565b5b600082013567ffffffffffffffff81111561260157612600612482565b5b61260d8482850161259f565b91505092915050565b6000819050919050565b61262981612616565b82525050565b600081519050919050565b600082825260208201905092915050565b60005b8381101561266957808201518184015260208101905061264e565b60008484015250505050565b60006126808261262f565b61268a818561263a565b935061269a81856020860161264b565b6126a381612491565b840191505092915050565b600082825260208201905092915050565b60006126ca8261262f565b6126d481856126ae565b93506126e481856020860161264b565b6126ed81612491565b840191505092915050565b60008115159050919050565b61270d816126f8565b82525050565b6000608083016000830151848203600086015261273082826126bf565b9150506020830151848203602086015261274a82826126bf565b9150506040830151848203604086015261276482826126bf565b91505060608301516127796060860182612704565b508091505092915050565b600060608301600083015184820360008601526127a182826126bf565b915050602083015184820360208601526127bb82826126bf565b91505060408301516127d06040860182612704565b508091505092915050565b600081519050919050565b600082825260208201905092915050565b6000819050602082019050919050565b600081519050919050565b600082825260208201905092915050565b6000819050602082019050919050565b600061283f83836126bf565b905092915050565b6000602082019050919050565b600061285f82612807565b6128698185612812565b93508360208202850161287b85612823565b8060005b858110156128b757848403895281516128988582612833565b94506128a383612847565b925060208a0199505060018101905061287f565b50829750879550505050505092915050565b600060808301600083015184820360008601526128e682826126bf565b9150506020830151848203602086015261290082826126bf565b9150506040830151848203604086015261291a8282612854565b915050606083015161292f6060860182612704565b508091505092915050565b600061294683836128c9565b905092915050565b6000602082019050919050565b6000612966826127db565b61297081856127e6565b935083602082028501612982856127f7565b8060005b858110156129be578484038952815161299f858261293a565b94506129aa8361294e565b925060208a01995050600181019050612986565b50829750879550505050505092915050565b600060e0820190506129e5600083018a612620565b81810360208301526129f78189612675565b90508181036040830152612a0b8188612675565b90508181036060830152612a1f8187612675565b90508181036080830152612a338186612713565b905081810360a0830152612a478185612784565b905081810360c0830152612a5b818461295b565b905098975050505050505050565b600073ffffffffffffffffffffffffffffffffffffffff82169050919050565b6000612a9482612a69565b9050919050565b612aa481612a89565b8114612aaf57600080fd5b50565b600081359050612ac181612a9b565b92915050565b60008060408385031215612ade57612add61247d565b5b600083013567ffffffffffffffff811115612afc57612afb612482565b5b612b088582860161259f565b9250506020612b1985828601612ab2565b9150509250929050565b60008060408385031215612b3a57612b3961247d565b5b600083013567ffffffffffffffff811115612b5857612b57612482565b5b612b648582860161259f565b925050602083013567ffffffffffffffff811115612b8557612b84612482565b5b612b918582860161259f565b9150509250929050565b600080600060608486031215612bb457612bb361247d565b5b600084013567ffffffffffffffff811115612bd257612bd1612482565b5b612bde8682870161259f565b935050602084013567ffffffffffffffff811115612bff57612bfe612482565b5b612c0b8682870161259f565b925050604084013567ffffffffffffffff811115612c2c57612c2b612482565b5b612c388682870161259f565b9150509250925092565b60008060008060808587031215612c5c57612c5b61247d565b5b600085013567ffffffffffffffff811115612c7a57612c79612482565b5b612c868782880161259f565b945050602085013567ffffffffffffffff811115612ca757612ca6612482565b5b612cb38782880161259f565b935050604085013567ffffffffffffffff811115612cd457612cd3612482565b5b612ce08782880161259f565b925050606085013567ffffffffffffffff811115612d0157612d00612482565b5b612d0d8782880161259f565b91505092959194509250565b600081905092915050565b6000612d2f8261262f565b612d398185612d19565b9350612d4981856020860161264b565b80840191505092915050565b6000612d618284612d24565b915081905092915050565b7f70726f6475637420646f65736e27742065786973740000000000000000000000600082015250565b6000612da260158361263a565b9150612dad82612d6c565b602082019050919050565b60006020820190508181036000830152612dd181612d95565b9050919050565b7f4e487b7100000000000000000000000000000000000000000000000000000000600052602260045260246000fd5b60006002820490506001821680612e1f57607f821691505b602082108103612e3257612e31612dd8565b5b50919050565b7f4e487b7100000000000000000000000000000000000000000000000000000000600052601160045260246000fd5b6000612e7282612616565b9150612e7d83612616565b9250828203905081811115612e9557612e94612e38565b5b92915050565b7f4e487b7100000000000000000000000000000000000000000000000000000000600052603260045260246000fd5b7f796f75206172656e277420746865206f776e6572206f6620746869732070726f60008201527f6475637400000000000000000000000000000000000000000000000000000000602082015250565b6000612f2660248361263a565b9150612f3182612eca565b604082019050919050565b60006020820190508181036000830152612f5581612f19565b9050919050565b6000612f6782612616565b91507fffffffffffffffffffffffffffffffffffffffffffffffffffffffffffffffff8203612f9957612f98612e38565b5b600182019050919050565b7f637573746f6d657220646f65736e277420657869737400000000000000000000600082015250565b6000612fda60168361263a565b9150612fe582612fa4565b602082019050919050565b6000602082019050818103600083015261300981612fcd565b9050919050565b7f70726f647563742069732073746f6c656e000000000000000000000000000000600082015250565b600061304660118361263a565b915061305182613010565b602082019050919050565b6000602082019050818103600083015261307581613039565b9050919050565b7f72657461696c657220646f65736e277420657869737400000000000000000000600082015250565b60006130b260168361263a565b91506130bd8261307c565b602082019050919050565b600060208201905081810360008301526130e1816130a5565b9050919050565b7f796f75206172656e277420746865206d616e756661637475726572206f66207460008201527f6869732070726f64756374000000000000000000000000000000000000000000602082015250565b6000613144602b8361263a565b915061314f826130e8565b604082019050919050565b6000602082019050818103600083015261317381613137565b9050919050565b7f72657461696c657220616c726561647920657869737473000000000000000000600082015250565b60006131b060178361263a565b91506131bb8261317a565b602082019050919050565b600060208201905081810360008301526131df816131a3565b9050919050565b60008190508160005260206000209050919050565b60006020601f8301049050919050565b600082821b905092915050565b6000600883026132487fffffffffffffffffffffffffffffffffffffffffffffffffffffffffffffffff8261320b565b613252868361320b565b95508019841693508086168417925050509392505050565b6000819050919050565b600061328f61328a61328584612616565b61326a565b612616565b9050919050565b6000819050919050565b6132a983613274565b6132bd6132b582613296565b848454613218565b825550505050565b600090565b6132d26132c5565b6132dd8184846132a0565b505050565b5b81811015613301576132f66000826132ca565b6001810190506132e3565b5050565b601f82111561334657613317816131e6565b613320846131fb565b8101602085101561332f578190505b61334361333b856131fb565b8301826132e2565b50505b505050565b600082821c905092915050565b60006133696000198460080261334b565b1980831691505092915050565b60006133828383613358565b9150826002028217905092915050565b61339b8261262f565b67ffffffffffffffff8111156133b4576133b36124a2565b5b6133be8254612e07565b6133c9828285613305565b600060209050601f8311600181146133fc57600084156133ea578287015190505b6133f48582613376565b86555061345c565b601f19841661340a866131e6565b60005b828110156134325784890151825560018201915060208501945060208101905061340d565b8683101561344f578489015161344b601f891682613358565b8355505b6001600288020188555050505b505050505050565b7f6d616e75666163747572657220616c7265616479206578697374730000000000600082015250565b600061349a601b8361263a565b91506134a582613464565b602082019050919050565b600060208201905081810360008301526134c98161348d565b9050919050565b7f796f75206172656e2774207468652072657461696c6572206f6620746869732060008201527f70726f6475637400000000000000000000000000000000000000000000000000602082015250565b600061352c60278361263a565b9150613537826134d0565b604082019050919050565b6000602082019050818103600083015261355b8161351f565b9050919050565b7f637573746f6d657220616c726561647920657869737473000000000000000000600082015250565b600061359860178361263a565b91506135a382613562565b602082019050919050565b600060208201905081810360008301526135c78161358b565b9050919050565b7f6d616e75666163747572657220646f65736e2774206578697374000000000000600082015250565b6000613604601a8361263a565b915061360f826135ce565b602082019050919050565b60006020820190508181036000830152613633816135f7565b9050919050565b7f70726f6475637420616c72656164792065786973747300000000000000000000600082015250565b600061367060168361263a565b915061367b8261363a565b602082019050919050565b6000602082019050818103600083015261369f81613663565b905091905056fea264697066735822122025c5137302047914cd76ca32a2291c701da7bba0081096e6da55454c538867b264736f6c63430008110033",
  "linkReferences": {},
  "deployedLinkReferences": {}
}